S012000031305F53445F436172642E73726563E2
S315080000000080012091170008CD150008D5150008B5
S31508000010DD150008E5150008ED15000800000000CC
S31508000020000000000000000000000000F5150008B0
S315080000300316000800000000111600082116000823
S31508000040E1170008E1170008E1170008E1170008A2
S31508000050E1170008E1170008E1170008E117000892
S31508000060E1170008E1170008E1170008E117000882
S31508000070E1170008E1170008E1170008E117000872
S31508000080E1170008E1170008E1170008E117000862
S31508000090E1170008E1170008E1170008E117000852
S315080000A0E1170008E1170008E1170008E117000842
S315080000B0E1170008E1170008E1170008E117000832
S315080000C0E1170008E1170008E1170008E117000822
S315080000D0E1170008E1170008E1170008E117000812
S315080000E0E1170008E1170008E1170008E117000802
S315080000F0E1170008E1170008E1170008E1170008F2
S31508000100E1170008E1170008E1170008E1170008E1
S31508000110E1170008E1170008E1170008E1170008D1
S31508000120E1170008E1170008E1170008E1170008C1
S31508000130E1170008E1170008E1170008E1170008B1
S31508000140E1170008E1170008E1170008E1170008A1
S31508000150E1170008E1170008E1170008E117000891
S31508000160E1170008E1170008E1170008E117000881
S31508000170E1170008E1170008E11700080000000071
S30D08000180E1170008E117000869
S3150800019010B5054C237833B9044B13B10448AFF3B3
S315080001A000800123237010BD80000020000000009D
S315080001B09088000808B5034B1BB103490348AFF301
S315080001C0008008BD00000000840000209088000818
S315080001D001F0FF01102A2BDB10F0070F08D010F8EA
S315080001E0013B013A8B422DD010F0070F42B3F6D1EE
S315080001F0F0B441EA012141EA014122F007047FF007
S3150800020000070023F0E80256083C85EA010586EA5D
S31508000210010685FA47F5A3FA87F586FA47F6A5FA99
S3150800022087F68EB9EED1F0BC01F0FF0102F00702A5
S3150800023032B110F8013B013A83EA010313B1F8D150
S315080002400020704701387047002D06BF3546033831
S31508000250073815F0010F07D1013015F4807F02BF6A
S31508000260013015F4C03F0130F0BC0138704700BFBB
S3150800027053B94AB9002908BF00281CBF4FF0FF31FF
S315080002804FF0FF3000F088B9ADF1080C6DE904CEE7
S3150800029000F006F8DDF804E0DDE9022304B0704753
S315080002A02DE9F047089D8E4604468846002B4AD11C
S315080002B08A42174662D9B2FA82F64EB1C6F12003CF
S315080002C001FA06F820FA03F3B74043EA0808B440EF
S315080002D04FEA174E1FFA87FCB8FBFEF1230C0EFBFC
S315080002E0118843EA084301FB0CF29A4209D9FB1824
S315080002F001F1FF3080F0EA809A4240F2E780023945
S315080003003B449A1AA3B2B2FBFEF00EFB102243EA54
S31508000310024300FB0CFC9C4509D9FB1800F1FF328F
S3150800032080F0D6809C4540F2D3803B44023840EAB0
S315080003300140A3EB0C0300211DB1F3400022C5E9DF
S315080003400032BDE8F0878B4205D90DB1C5E9000139
S3150800035000210846F5E7B3FA83F1002946D173452B
S3150800036002D3824200F20581841A6EEB0302012051
S315080003709046002DE5D0C5E90048E2E7002A00F0DE
S315080003809080B2FA82F6002E40F0A4808A1A030CF6
S315080003904FEA174E80B2BCB20121B2FBFEFC0EFB3F
S315080003A01C2243EA024304FB0CF29A4207D9FB18C3
S315080003B00CF1FF3802D29A4200F2E080C4469B1A3A
S315080003C0B3FBFEF20EFB123340EA034302FB04F4CE
S315080003D09C4207D9FB1802F1FF3002D29C4200F278
S315080003E0CA8002461B1B42EA0C40A5E7C1F120065B
S315080003F08B4022FA06F71F430EFA01F420FA06F399
S315080004002EFA06FE4FEA1749234300FA01F81FFAA7
S3150800041087FCBEFBF9F01C0C09FB10EE44EA0E44FF
S3150800042000FB0CFEA64502FA01F209D93C1900F1B7
S31508000430FF3A80F09C80A64540F2998002383C44F9
S31508000440A4EB0E041FFA83FEB4FBF9F309FB13446D
S315080004504EEA044403FB0CFCA44508D93C1903F1F5
S31508000460FF3E80F08280A4457FD9023B3C4443EAA4
S315080004700040A4EB0C04A0FB02EC64457346E1467D
S3150800048062D35FD05DB1B8EB030264EB090404FAEA
S3150800049006F622FA01F31E43CC40C5E900640021A2
S315080004A04FE7B1FBF2FC010C41EA0E4180B240EA8B
S315080004B001423B4638463C46B846BE462026B1FB76
S315080004C0F7F1A2EB080241EA0C4166E7014618E794
S315080004D010462CE7C6F120022EFA02F3B740B140C7
S315080004E020FA02F24FEA174E0A43B3FBFEF8BCB2F3
S315080004F00EFB1833110C41EA034108FB04F9B0401E
S3150800050089454FEA104380B23ED9791808F1FF3C75
S3150800051001D289451FD8A1EB0901B1FBFEF909FBF8
S3150800052004F80EFB191192B242EA0142424529D259
S31508000530BA1809F1FF31C4D24245C2D2A9F1020163
S315080005403A44BEE7F0459DD2BEEB02036CEB070CBE
S315080005500138E14696E7A7EB09094944A8F1020CD8
S31508000560B1FBFEF909FB04F8DBE773467FE7504663
S3150800057066E70846FDE63B44023A33E7ACF1020C6F
S315080005803B441CE749469CE7A1EB0901C446B1FB7D
S31508000590FEF909FB04F8C4E7704700BF80B500AF51
S315080005A000220221034801F04DFC012001F096F9D2
S315080005B000BF80BD0008004880B500AF01220221B7
S315080005C0034801F03FFC012001F088F900BF80BD17
S315080005D00008004880B582B000AF0346FB7100BF33
S315080005E0084B1B689B6803F00203022BF8D1F91D20
S315080005F064230122034803F000F800BF0837BD460C
S3150800060080BD00BFA400002080B582B000AF78602E
S315080006100B467B8000BF084B1B689B6803F00203F0
S31508000620022BF8D17A8864237968034802F0E5FF3B
S3150800063000BF0837BD4680BDA400002080B584B041
S3150800064002AFFF23FB7100BF094B1B689B6803F0D1
S315080006500203022BF8D1BA1DF91D64230093012366
S31508000660034803F040F9BB7918460837BD4680BDF4
S31508000670A400002080B582B000AF7860FFF7DEFFE7
S3150800068003461A467B681A7000BF0837BD4680BD08
S3150800069080B582B000AF0A4B4FF4FA721A80FFF7A2
S315080006A0CDFF0346FB71FB79FF2B03D0044B1B8858
S315080006B0002BF4D1FB7918460837BD4680BD00BF2C
S315080006C09E00002080B584B000AF41F6FF73FB6042
S315080006D0FFF772FF0023BB6005E0FF20FFF77AFFF4
S315080006E0BB680133BB60BB68092BF6DDFFF756FF15
S315080006F040233B7000237B700023BB700023FB70F4
S3150800070000233B7195237B713B4606211846FFF76C
S315080007107BFF02E0FB68013BFB60FFF78FFF0346A8
S31508000720012B02D0FB68002BF4D1FFF745FFFF2011
S31508000730FFF750FF034B01221A7000BF1037BD4662
S3150800074080BD00BFA100002080B400AF034B00228B
S315080007501A7000BFBD465DF8047B7047A1000020F3
S3150800076080B400AF034B1B781846BD465DF8047B82
S31508000770704700BFA100002080B584B000AF786044
S315080007803960134BC8221A80FFF758FF0346FB73DC
S31508000790FB7BFF2B03D10E4B1B88002BF4D1FB7B75
S315080007A0FE2B01D000230FE07B685A1C7A6018469E
S315080007B0FFF760FF3B685A1E3A60002BF4D1FFF73B
S315080007C03DFFFFF73BFF012318461037BD4680BDA6
S315080007D09C00002080B584B000AF78600B46FB70A3
S315080007E00023BB73FFF754FF0346FF2B01D00023FA
S315080007F02FE0FB781846FFF7EDFEFB78FD2B20D09F
S315080008004FF400717868FFF7FFFEFFF717FFFFF751
S3150800081015FF0BE0FFF712FF0346FB73FB7B03F0A4
S315080008201F03052B06D0BB7B0133BB73BB7B402B59
S31508000830F0D900E000BF00BFFFF700FF0346002B1A
S31508000840FAD0FB7B03F01F03052B01D1012300E03F
S31508000850002318461037BD4680BD80B584B000AF6A
S3150800086003463960FB71FFF713FF0346FF2B01D0E0
S31508000870FF2342E0FB791846FFF7ACFE3B681B0EE8
S31508000880DBB21846FFF7A6FE3B681B0CDBB2184620
S31508000890FFF7A0FE3B681B0ADBB21846FFF79AFE75
S315080008A03B68DBB21846FFF795FEFB79402B02D171
S315080008B09523FB7307E0FB79482B02D18723FB734B
S315080008C001E00123FB73FB7B1846FFF783FEFB79E8
S315080008D04C2B01D1FFF7B2FE0A23BB73FFF7AEFE1E
S315080008E003467B7397F90D30002B05DABB7B013B7A
S315080008F0BB73BB7B002BF1D17B7B18461037BD46FB
S3150800090080BD000090B585B000AF0346FB71FB794A
S31508000910002B01D00123D1E06A4B1B78DBB203F030
S315080009200203002B03D0674B1B78DBB2C6E0FFF748
S31508000930C9FEFFF733FE0023BB7300214020FFF7F3
S315080009408CFF0346012B40F0A1805F4B4FF47A726F
S315080009501A804FF4D5714820FFF77FFF0346012B15
S3150800096055D10023FB730CE0FC7BFFF767FE0346BB
S315080009701A4604F110033B4403F8082CFB7B0133A9
S31508000980FB73FB7B032BEFD9BB7A012B7ED1FB7A5A
S31508000990AA2B7BD100217720FFF75FFF0346012BA7
S315080009A007D84FF080416920FFF757FF0346002B11
S315080009B004D0454B1B88002BECD100E000BF424B0E
S315080009C01B88002B62D000217A20FFF746FF0346DA
S315080009D0002B5BD10023FB730CE0FC7BFFF72EFE9C
S315080009E003461A4604F110033B4403F8082CFB7B24
S315080009F00133FB73FB7B032BEFD93B7A03F04003F0
S31508000A00002B01D00C2300E00423BB733EE0002139
S31508000A107720FFF722FF0346012B08D8002169201B
S31508000A20FFF71BFF0346012B01D8022300E0012331
S31508000A30BB73BB7B022B0ED100217720FFF70DFF7E
S31508000A400346012B0ED800216920FFF706FF03464F
S31508000A50002B07D10CE000214120FFF7FEFE0346DC
S31508000A60002B04D0184B1B88002BE2D100E000BFF6
S31508000A70154B1B88002B07D04FF400715020FFF749
S31508000A80ECFE0346002B01D00023BB730F4ABB7B49
S31508000A901370FFF791FDFFF7D1FDBB7B002B08D044
S31508000AA0084B1B78DBB223F00103DAB2054B1A7048
S31508000AB001E0FFF749FE034B1B78DBB218461437F3
S31508000AC0BD4690BD000000209C000020A00000202C
S31508000AD080B483B000AF0346FB71FB79002B01D0CD
S31508000AE0012302E0044B1B78DBB218460C37BD46DF
S31508000AF05DF8047B704700BF0000002080B584B015
S31508000B0000AFB9607A603B600346FB73FB7B002B42
S31508000B1002D13B68002B01D1042351E02A4B1B78F4
S31508000B20DBB203F00103002B01D0032348E0274B77
S31508000B301B7803F00403002B02D17B685B027B6001
S31508000B40FFF72CFD3B68012B11D179685120FFF77F
S31508000B5084FE0346002B29D14FF40071B868FFF7CD
S31508000B600BFE0346002B21D000233B601EE079686C
S31508000B705220FFF772FE0346002B17D14FF400717F
S31508000B80B868FFF7F9FD0346002B0AD0BB6803F5E2
S31508000B900073BB603B68013B3B603B68002BEDD1B3
S31508000BA000E000BF00214C20FFF757FEFFF704FDC9
S31508000BB0FFF744FD3B68002B14BF01230023DBB27B
S31508000BC018461037BD4680BD00000020A000002052
S31508000BD080B584B000AFB9607A603B600346FB73AA
S31508000BE0FB7B002B02D13B68002B01D104236BE071
S31508000BF0374B1B78DBB203F00103002B01D003232C
S31508000C0062E0334B1B78DBB203F00403002B01D000
S31508000C10022359E02F4B1B7803F00403002B02D163
S31508000C207B685B027B60FFF7B9FC3B68012B10D140
S31508000C3079685820FFF711FE0346002B3AD1FE21AA
S31508000C40B868FFF7C7FD0346002B33D000233B6087
S31508000C5030E0204B1B7803F00203002B07D000215D
S31508000C607720FFF7FAFD39685720FFF7F6FD796810
S31508000C705920FFF7F2FD0346002B1BD1FC21B8686B
S31508000C80FFF7A8FD0346002B0AD0BB6803F50073DF
S31508000C90BB603B68013B3B603B68002BEED100E044
S31508000CA000BFFD210020FFF795FD0346002B01D16B
S31508000CB001233B60FFF780FCFFF7C0FC3B68002B75
S31508000CC014BF01230023DBB218461037BD4680BD8A
S31508000CD000000020A000002090B58BB000AF0346AE
S31508000CE03A60FB710B46BB713B683B62FB79002B94
S31508000CF001D0042313E1012387F82730BB79052B9C
S31508000D0024D13B6A1B78022B12D0022B1ADC002B4B
S31508000D1002D0012B06D015E0FFF716FD002387F851
S31508000D202730FAE0FFF7CEFC002387F82730F4E0F7
S31508000D303B6A5C1CFFF714FD03462370002387F803
S31508000D402730EAE0042387F82730E6E0764B1B785D
S31508000D50DBB203F00103002B01D00323DFE0FFF72A
S31508000D601DFCBB790D2B00F2C98001A252F823F0B5
S31508000D70670E0008A90D0008570E0008FD0E0008AA
S31508000D80FD0E0008FD0E0008FD0E0008FD0E000809
S31508000D90FD0E0008FD0E0008FD0E0008790E00087D
S31508000DA09D0E0008C10E000800214920FFF755FDD9
S31508000DB00346002B40F0A68007F10C0310211846C5
S31508000DC0FFF7DAFC0346002B00F09C803B7B9B096F
S31508000DD0DBB2012B0DD17B7D1A463B7D1B029BB2F4
S31508000DE013449BB20133FB83FB8B9A023B681A6060
S31508000DF02DE07B7C03F00F03DAB2BB7DDB09DBB2A7
S31508000E001344DAB27B7D5B00DBB203F00603DBB288
S31508000E101344DBB2023387F826303B7D9B09DBB2ED
S31508000E201A46FB7C9B009BB213449AB2BB7C9B027E
S31508000E309BB203F440639BB213449BB20133FB831A
S31508000E40FA8B97F82630093B9A403B681A600023CC
S31508000E5087F8273056E03B684FF400721A80002363
S31508000E6087F8273055E0FFF713FC0346FF2B4BD1D5
S31508000E70002387F8273047E000214920FFF7EDFCDB
S31508000E800346002B42D11021386AFFF775FC03464A
S31508000E90002B3BD0002387F8273037E000214A2073
S31508000EA0FFF7DBFC0346002B32D11021386AFFF727
S31508000EB063FC0346002B2BD0002387F8273027E056
S31508000EC000217A20FFF7C9FC0346002B16D1002320
S31508000ED087F826300BE03C6A631C3B62FFF7AEFBE3
S31508000EE00346237097F82630013387F8263097F89B
S31508000EF02630032BEFD9002387F82730042387F8F9
S31508000F00273006E000BF04E000BF02E000BF00E0B3
S31508000F1000BFFFF751FBFFF791FB97F827301846FC
S31508000F202C37BD4690BD00BF0000002080B483B0BA
S31508000F3000AF78604FF06043D3F8803E03F00103BA
S31508000F40002B13D04FF06043D3F8003E03F00103A3
S31508000F50002B0BD000E000BF4FF060431B68002B4E
S31508000F60F9D04FF060437A68D2B21A707B68184697
S31508000F700C37BD465DF8047B704780B586B000AF78
S31508000F80F860B9607A6000237B6100237B6109E021
S31508000F90BB685A1CBA601B781846FFF7C7FF7B69FF
S31508000FA001337B617A697B689A42F1DB7B68184674
S31508000FB01837BD4680BD000080B400AF0C4BDB6817
S31508000FC003F08073002B05D1094BDB68084A43F010
S31508000FD08073D360074B00225A60064B1B68054A8C
S31508000FE043F00103136000BFBD465DF8047B7047FC
S31508000FF0F0ED00E0001000E080B500AF00F0F2FB75
S3150800100000F016F800F02EF900F064F804F056F82F
S3150800101000F0F8F800F09CF8FFF7CEFF034806F05A
S31508001020D5FD00F081F900BFFDE700BFA8880008DC
S3150800103080B596B000AF07F1140344220021184684
S3150800104006F0A4FE3B4600221A605A609A60DA60EF
S315080010501A614FF4007000F01BFF0346002B01D005
S3150800106000F0A6F910237B610123FB6200233B6392
S3150800107060237B630223FB6301233B6401237B64B8
S315080010801423BB640723FB6402233B6502237B65A9
S3150800109007F11403184600F051FF0346002B01D050
S315080010A000F086F90F233B6003237B600023BB60B7
S315080010B00023FB6000233B613B460221184601F0F2
S315080010C019FB0346002B01D000F072F900BF583710
S315080010D0BD4680BD80B500AF1B4B1C4A1A601A4B33
S315080010E04FF482725A60184B00229A60164B4FF4DE
S315080010F0E062DA60144B00221A61134B00225A612F
S31508001100114B4FF400729A610F4B3822DA610E4B7D
S3150800111000221A620C4B00225A620B4B00229A627A
S31508001120094B0722DA62084B00221A63064B08228B
S315080011305A63054802F0BEF90346002B01D000F0B9
S3150800114037F900BF80BD00BFA4000020003800406A
S3150800115080B588B000AF07F1140300221A605A6000
S315080011609A603B1D00221A605A609A60DA60234B27
S31508001170234A1A60214B4F225A60204B00229A605C
S315080011801E4B4FF6FF72DA601C4B00221A611B4B8E
S3150800119000225A61194B00229A61184802F026FF6C
S315080011A00346002B01D000F003F900237B610023DE
S315080011B0BB610023FB6107F1140319460F4803F0CE
S315080011C0D3F90346002B01D000F0F2F800237B6028
S315080011D00123BB600023FB6000233B613B1D00220B
S315080011E01946064802F059FF0346002B01D000F0C5
S315080011F0DFF800BF2037BD4680BD00BF08010020CC
S31508001200002C014080B500AF144B154A1A60134BE9
S315080012104FF4E1325A60114B00229A600F4B0022BC
S31508001220DA600E4B00221A610C4B0C225A610B4BEA
S3150800123000229A61094B0022DA61084B00221A62E1
S31508001240064B00225A62054803F016FA0346002B9D
S3150800125001D000F0ADF800BF80BD00BF54010020EA
S315080012600044004080B588B000AF07F10C030022A7
S315080012701A605A609A60DA601A61284BDB6C274A52
S3150800128043F00403D364254BDB6C03F00403BB6013
S31508001290BB68224BDB6C214A43F00103D3641F4B26
S315080012A0DB6C03F001037B607B681C4BDB6C1B4A21
S315080012B043F00203D364194BDB6C03F002033B6073
S315080012C03B6800220221164800F0BCFD01224FF4BB
S315080012D08051144800F0B6FD0223FB6001233B61F0
S315080012E000237B610023BB6107F10C0319460C48F8
S315080012F000F0FEFB4FF48053FB6001233B610023A3
S315080013007B610023BB6107F10C031946054800F011
S31508001310EFFB00BF2037BD4680BD00BF001002406E
S31508001320000800480004004880B500AF01221749AC
S31508001330174805F0F1FF03461A46164B1A70154B67
S315080013401B78002B06D0134B1B781946124806F05B
S31508001350D5FB19E0114806F039FC3222104911482C
S3150800136006F020F803461A460A4B1A70094B1B78F2
S31508001370002B06D0074B1B7819460B4806F0BEFB18
S3150800138002E00A4806F022FC80BD00BF1C120020BD
S31508001390201200200C120020D4880008EC880008CF
S315080013A0FC880008DC010020088900082489000858
S315080013B080B400AF72B600BF00BFFDE780B483B04B
S315080013C000AF0F4B1B6E0E4A43F0010313660C4B1E
S315080013D01B6E03F001037B607B68094B9B6D084A13
S315080013E043F080539365064B9B6D03F080533B6037
S315080013F03B6800BF0C37BD465DF8047B704700BFED
S315080014000010024080B58AB000AF786007F1140377
S3150800141000221A605A609A60DA601A617B681B6853
S31508001420174A934228D1174B9B6D164A43F48043BB
S315080014309365144B9B6D03F480433B613B69114BE9
S31508001440DB6C104A43F00203D3640E4BDB6C03F0EB
S315080014500203FB60FB684FF460437B610223BB61B8
S315080014600023FB6103233B6205237B6207F1140318
S315080014701946054800F03CFB00BF2837BD4680BD2D
S3150800148000380040001002400004004880B58AB0C9
S3150800149000AF786007F1140300221A605A609A6058
S315080014A0DA601A617B681B68184A934229D1184B7F
S315080014B01B6E174A43F400631366154B1B6E03F441
S315080014C000633B613B69124BDB6C114A43F0010335
S315080014D0D3640F4BDB6C03F00103FB60FB684FF42E
S315080014E080737B610223BB610023FB6100233B629F
S315080014F001237B6207F1140319464FF0904000F070
S31508001500F7FA00BF2837BD4680BD00BF002C014052
S315080015100010024080B5ACB000AF786007F19C03BC
S3150800152000221A605A609A60DA601A6107F1140399
S3150800153088220021184606F029FC7B681B68214A88
S3150800154093423BD102237B6100233B6507F11403D9
S31508001550184601F0F3FA0346002B01D0FFF728FFDF
S31508001560194B9B6D184A43F400339365164B9B6DD4
S3150800157003F400333B613B69134BDB6C124A43F0BF
S315080015800103D364104BDB6C03F00103FB60FB68BB
S315080015900C23C7F89C300223C7F8A0300023C7F8ED
S315080015A0A4300323C7F8A8300723C7F8AC3007F1DF
S315080015B09C0319464FF0904000F09AFA00BFB037E6
S315080015C0BD4680BD004400400010024080B400AF14
S315080015D000BFFDE780B400AF00BFFDE780B400AFF1
S315080015E000BFFDE780B400AF00BFFDE780B400AFE1
S315080015F000BFFDE780B400AF00BFBD465DF8047BC1
S31508001600704780B400AF00BFBD465DF8047B7047E5
S3150800161080B400AF00BFBD465DF8047B704700008C
S3150800162080B500AF0B4B1B88002B05D0094B1B88D8
S31508001630013B9AB2074B1A80074B1B88002B05D033
S31508001640054B1B88013B9AB2034B1A8000F026F91A
S3150800165000BF80BD9C0000209E00002080B586B09B
S3150800166000AFF860B9607A6000237B610AE0AFF3E7
S3150800167000800146BB685A1CBA60CAB21A707B69F8
S3150800168001337B617A697B689A42F0DB7B6818468E
S315080016901837BD4680BD80B483B000AF78604FF080
S315080016A0FF3318460C37BD465DF8047B704780B497
S315080016B083B000AF786039603B684FF400525A60D7
S315080016C0002318460C37BD465DF8047B704780B486
S315080016D083B000AF7860012318460C37BD465DF825
S315080016E0047B704780B485B000AFF860B9607A6053
S315080016F0002318461437BD465DF8047B7047000082
S3150800170080B586B000AF7860144A154BD31A7B6152
S315080017107B693B61134B1B68002B02D1114B124AA4
S315080017201A60104B1A687B6813443A699A4207D2C2
S3150800173006F07AFB03460C221A604FF0FF3309E0E5
S31508001740084B1B68FB60074B1A687B681344054AFD
S315080017501360FB6818461837BD4680BD0080012017
S315080017600004000010120020D825002080B400AF25
S31508001770064BD3F88830054A43F47003C2F888301C
S3150800178000BFBD465DF8047B704700BF00ED00E072
S31508001790DFF834D0FFF7EAFF0C480D490D4A00235D
S315080017A002E0D458C4500433C4188C42F9D30A4A08
S315080017B00A4C002301E013600432A242FBD306F070
S315080017C039FBFFF719FCFEE7008001200000002026
S315080017D080000020848E000880000020D825002084
S315080017E0FEE7000080B582B000AF0023FB710C4B0A
S315080017F01B680B4A43F480731360032000F044F916
S31508001800002000F00FF80346002B02D00123FB71DD
S3150800181001E0FFF7D3FDFB7918460837BD4680BDC2
S315080018200020024080B584B000AF78600023FB73C7
S31508001830174B1B78002B23D0164B1A68144B1B78B2
S3150800184019464FF47A73B3FBF1F3B2FBF3F3184678
S3150800185000F041F90346002B0FD17B680F2B09D8FE
S31508001860002279684FF0FF3000F019F90A4A7B68C0
S31508001870136007E00123FB7304E00123FB7301E017
S315080018800123FB73FB7B18461037BD4680BD00BF9E
S315080018900C000020040000200800002080B400AFDF
S315080018A0064B1B781A46064B1B681344044A1360FA
S315080018B000BFBD465DF8047B704700BF0C000020E2
S315080018C01412002080B400AF034B1B681846BD46AF
S315080018D05DF8047B704700BF1412002080B584B001
S315080018E000AF7860FFF7EEFFB8607B68FB60FB68C7
S315080018F0B3F1FF3F05D00A4B1B781A46FB68134421
S31508001900FB6000BFFFF7DEFF0246BB68D31AFA6822
S315080019109A42F7D800BF00BF1037BD4680BD00BF4A
S315080019200C00002080B485B000AF78607B6803F0B7
S315080019300703FB600C4BDB68BB60BA684FF6FF0316
S315080019401340BB60FB681A02BB68134343F0BF63CE
S3150800195043F40033BB60044ABB68D36000BF143746
S31508001960BD465DF8047B704700ED00E080B400AF2B
S31508001970044BDB681B0A03F007031846BD465DF8EF
S31508001980047B704700ED00E080B483B000AF0346E7
S315080019903960FB7197F90730002B0ADB3B68DAB22E
S315080019A00C4997F907301201D2B20B4483F8002389
S315080019B00AE03B68DAB20849FB7903F00F03043BF7
S315080019C01201D2B20B441A7600BF0C37BD465DF839
S315080019D0047B704700E100E000ED00E080B489B0C8
S315080019E000AFF860B9607A60FB6803F00703FB6133
S315080019F0FB69C3F10703042B28BF0423BB61FB69FA
S31508001A000433062B02D9FB69033B00E000237B6104
S31508001A104FF0FF32BB6902FA03F3DA43BB681A4098
S31508001A207B699A404FF0FF317B6901FA03F3D9438A
S31508001A307B680B40134318462437BD465DF8047B84
S31508001A407047000080B582B000AF78607B68013BC4
S31508001A50B3F1807F01D301230FE00A4A7B68013B7B
S31508001A6053600F214FF0FF30FFF78EFF054B002222
S31508001A709A60044B07221A60002318460837BD46A9
S31508001A8080BD00BF10E000E080B582B000AF78608E
S31508001A907868FFF747FF00BF0837BD4680BD80B5A9
S31508001AA086B000AF0346B9607A60FB7300237B619A
S31508001AB0FFF75CFF78617A68B9687869FFF78EFF87
S31508001AC0024697F90F3011461846FFF75DFF00BF2B
S31508001AD01837BD4680BD80B582B000AF786078689B
S31508001AE0FFF7B0FF034618460837BD4680BD00001D
S31508001AF080B487B000AF7860396000237B617FE1EE
S31508001B003B681A6801217B6901FA03F31340FB60FD
S31508001B10FB68002B00F071813B685B6803F00303E8
S31508001B20012B05D03B685B6803F00303022B30D119
S31508001B307B689B683B617B695B00032202FA03F3BF
S31508001B40DB433A6913403B613B68DA687B695B00B3
S31508001B5002FA03F33A6913433B617B683A699A6070
S31508001B607B685B683B6101227B6902FA03F3DB430E
S31508001B703A6913403B613B685B681B0903F0010245
S31508001B807B6902FA03F33A6913433B617B683A6956
S31508001B905A603B685B6803F00303032B18D17B6824
S31508001BA0DB6A3B6101227B6902FA03F3DB433A698C
S31508001BB013403B613B685B68DB0803F001027B6905
S31508001BC002FA03F33A6913433B617B683A69DA62BE
S31508001BD03B685B6803F00303032B17D07B68DB685D
S31508001BE03B617B695B00032202FA03F3DB433A6934
S31508001BF013403B613B689A687B695B0002FA03F312
S31508001C003A6913433B617B683A69DA603B685B680B
S31508001C1003F00303022B23D17B69DA087B680832B9
S31508001C2053F822303B617B6903F007039B000F22C0
S31508001C3002FA03F3DB433A6913403B613B681A69CE
S31508001C407B6903F007039B0002FA03F33A6913431F
S31508001C503B617B69DA087B680832396943F82210E8
S31508001C607B681B683B617B695B00032202FA03F30E
S31508001C70DB433A6913403B613B685B6803F0030248
S31508001C807B695B0002FA03F33A6913433B617B689D
S31508001C903A691A603B685B6803F44033002B00F02E
S31508001CA0AC805F4B1B6E5E4A43F0010313665C4BC8
S31508001CB01B6E03F00103BB60BB685A4A7B699B082D
S31508001CC0023352F823303B617B6903F003039B0020
S31508001CD00F2202FA03F3DB433A6913403B617B6840
S31508001CE0B3F1904F25D07B684F4A93421FD07B684B
S31508001CF04E4A934219D07B684D4A934213D07B686B
S31508001D004C4A93420DD07B684B4A934207D07B6876
S31508001D104A4A934201D106230CE007230AE0052329
S31508001D2008E0042306E0032304E0022302E001237B
S31508001D3000E000237A6902F00302920093403A69B0
S31508001D4013433B6137497B699B0802333A6941F87B
S31508001D5023203B4B9B683B61FB68DB433A69134096
S31508001D603B613B685B6803F48013002B03D03A6938
S31508001D70FB6813433B61324A3B699360304BDB682F
S31508001D803B61FB68DB433A6913403B613B685B6830
S31508001D9003F40013002B03D03A69FB6813433B6135
S31508001DA0274A3B69D360264B5B683B61FB68DB438C
S31508001DB03A6913403B613B685B6803F40033002BC8
S31508001DC003D03A69FB6813433B611D4A3B6953607C
S31508001DD01B4B1B683B61FB68DB433A6913403B615D
S31508001DE03B685B6803F48033002B03D03A69FB68D1
S31508001DF013433B61124A3B6913607B6901337B617C
S31508001E003B681A687B6922FA03F3002B7FF478AEE5
S31508001E1000BF00BF1C37BD465DF8047B704700BF96
S31508001E200010024000000140000400480008004875
S31508001E30000C00480010004800140048001800482C
S31508001E400004014080B483B000AF78600B467B8005
S31508001E5013467B707B78002B03D07A887B689A615F
S31508001E6002E07A887B689A6200BF0C37BD465DF847
S31508001E70047B704780B400AF044B1B6803F4C0634F
S31508001E801846BD465DF8047B704700BF00700040E9
S31508001E9080B485B000AF78607B68B3F5007F30D139
S31508001EA0234B1B6803F4C063B3F5007F38D0204B7F
S31508001EB01B6823F4C0631E4A43F4007313601D4B6A
S31508001EC01B68322202FB03F31B4AA2FB03239B0C6B
S31508001ED00133FB6002E0FB68013BFB60144B5B6966
S31508001EE003F48063B3F5806F02D1FB68002BF2D14F
S31508001EF00F4B5B6903F48063B3F5806F10D103233E
S31508001F000FE00B4B1B6803F4C063B3F5806F07D073
S31508001F10074B1B6823F4C063054A43F480631360C8
S31508001F20002318461437BD465DF8047B704700BF8A
S31508001F30007000400400002083DE1B4380B588B093
S31508001F4000AF78607B68002B01D10123CAE3974B69
S31508001F509B6803F00C03BB61944BDB6803F0030337
S31508001F607B617B681B6803F01003002B00F0E4809C
S31508001F70BB69002B07D0BB690C2B40F08B807B69B3
S31508001F80012B40F08780894B1B6803F00203002B66
S31508001F9005D07B689B69002B01D10123A2E37B68EE
S31508001FA01A6A824B1B6803F00803002B04D07F4B88
S31508001FB01B6803F0F00305E07C4BD3F894301B094B
S31508001FC003F0F003934223D27B681B6A184600F09D
S31508001FD055FD0346002B01D0012383E3734B1B6891
S31508001FE0724A43F008031360704B1B6823F0F00233
S31508001FF07B681B6A6D4913430B606C4B5B6823F463
S315080020007F427B68DB691B02684913434B6025E006
S31508002010664B1B68654A43F008031360634B1B68ED
S3150800202023F0F0027B681B6A604913430B605F4B21
S315080020305B6823F47F427B68DB691B025B491343B9
S315080020404B60BB69002B09D17B681B6A184600F0F8
S3150800205015FD0346002B01D0012343E300F04AFC9B
S315080020600246524B9B681B0903F00F035049CB5C91
S3150800207003F01F0322FA03F34E4A13604E4B1B6804
S315080020801846FFF7CFFB0346FB73FB7B002B52D0AA
S31508002090FB7B27E37B689B69002B32D0434B1B688D
S315080020A0424A43F001031360FFF70CFC386108E06D
S315080020B0FFF708FC02463B69D31A022B01D9032312
S315080020C010E33A4B1B6803F00203002BF0D0374BA2
S315080020D01B68364A43F008031360344B1B6823F029
S315080020E0F0027B681B6A314913430B602F4B5B6810
S315080020F023F47F427B68DB691B022C4913434B6040
S315080021001AE02A4B1B68294A23F001031360FFF7DC
S31508002110D9FB386108E0FFF7D5FB02463B69D31ABD
S31508002120022B01D90323DDE2204B1B6803F00203CF
S31508002130002BF0D100E000BF7B681B6803F00103A9
S31508002140002B74D0BB69082B05D0BB690C2B0ED1AC
S315080021507B69032B0BD1154B1B6803F40033002B4B
S3150800216064D07B685B68002B60D10123BAE27B6888
S315080021705B68B3F5803F06D10C4B1B680B4A43F4EA
S315080021808033136026E07B685B68B3F5A02F15D112
S31508002190064B1B68054A43F480231360034B1B68F0
S315080021A0024A43F48033136014E000BF0010024073
S315080021B0B88900080400002008000020A04B1B680E
S315080021C09F4A23F4803313609D4B1B689C4A23F473
S315080021D0802313607B685B68002B13D0FFF772FBC4
S315080021E0386108E0FFF76EFB02463B69D31A642B99
S315080021F001D9032376E2924B1B6803F40033002BC4
S31508002200F0D014E0FFF75EFB386108E0FFF75AFBF1
S3150800221002463B69D31A642B01D9032362E2884B31
S315080022201B6803F40033002BF0D100E000BF7B6885
S315080022301B6803F00203002B60D0BB69042B05D092
S31508002240BB690C2B19D17B69022B16D17C4B1B68F9
S3150800225003F48063002B05D07B68DB68002B01D173
S3150800226001233FE2764B5B6823F0F8527B681B69D3
S315080022701B06734913434B6040E07B68DB68002B01
S3150800228023D06F4B1B686E4A43F480731360FFF7C5
S3150800229019FB386108E0FFF715FB02463B69D31ABC
S315080022A0022B01D903231DE2654B1B6803F48063E7
S315080022B0002BF0D0624B5B6823F0F8527B681B69F1
S315080022C01B065F4913434B6018E05D4B1B685C4A6D
S315080022D023F480731360FFF7F5FA386108E0FFF717
S315080022E0F1FA02463B69D31A022B01D90323F9E115
S315080022F0534B1B6803F48063002BF0D17B681B6883
S3150800230003F00803002B3CD07B685B69002B1CD0CC
S315080023104B4BD3F894304A4A43F00103C2F8943041
S31508002320FFF7D0FA386108E0FFF7CCFA02463B69B6
S31508002330D31A022B01D90323D4E1414BD3F89430A5
S3150800234003F00203002BEFD01BE03D4BD3F894308B
S315080023503B4A23F00103C2F89430FFF7B3FA386119
S3150800236008E0FFF7AFFA02463B69D31A022B01D9F8
S315080023700323B7E1324BD3F8943003F00203002B62
S31508002380EFD17B681B6803F00403002B00F0A680DE
S315080023900023FB772A4B9B6D03F08053002B0DD14E
S315080023A0274B9B6D264A43F080539365244B9B6DC0
S315080023B003F08053BB60BB680123FB77214B1B6886
S315080023C003F48073002B18D11E4B1B681D4A43F477
S315080023D080731360FFF776FA386108E0FFF772FA40
S315080023E002463B69D31A022B01D903237AE1154B1E
S315080023F01B6803F48073002BF0D07B689B68012B65
S3150800240008D10F4BD3F890300D4A43F00103C2F8B8
S31508002410903029E07B689B68052B15D1084BD3F8CB
S315080024209030074A43F00403C2F89030044BD3F8BF
S315080024309030034A43F00103C2F8903014E000BF1D
S3150800244000100240007000409C4BD3F890309B4A25
S3150800245023F00103C2F89030984BD3F89030974A8E
S3150800246023F00403C2F890307B689B68002B16D0D3
S31508002470FFF728FA38610AE0FFF724FA02463B69B3
S31508002480D31A41F28832934201D903232AE18B4BAE
S31508002490D3F8903003F00203002BEDD015E0FFF7D8
S315080024A011FA38610AE0FFF70DFA02463B69D31ABA
S315080024B041F28832934201D9032313E17F4BD3F8C3
S315080024C0903003F00203002BEDD1FB7F012B05D1E1
S315080024D07A4B9B6D794A23F0805393657B689B6A98
S315080024E0002B00F0FE807B689B6A022B40F0D080B0
S315080024F0724BDB687B617B6903F003027B68DB6AEE
S315080025009A4230D17B6903F070027B681B6B013BF2
S315080025101B019A4227D17B6903F4FE427B685B6BF9
S315080025201B029A421FD17B6903F400337A68926BC7
S31508002530072A14BF01220022D2B2934213D17B6923
S3150800254003F4C0027B68DB6B5B08013B5B059A42C0
S3150800255009D17B6903F0C0627B681B6C5B08013B91
S315080025605B069A426ED0BB690C2B69D0534B1B682D
S3150800257003F08063002B05D1504B1B6803F0805392
S31508002580002B01D00123ADE04C4B1B684B4A23F0CE
S3150800259080731360FFF796F9386108E0FFF792F940
S315080025A002463B69D31A022B01D903239AE0434B0F
S315080025B01B6803F00073002BF0D1404BDA68404BE0
S315080025C013407A68D16A7A68126B013A120111438C
S315080025D07A68526B120211437A68D26B5208013A32
S315080025E0520511437A68126C5208013A5206114391
S315080025F07A68926B120952040A4330491343CB6036
S315080026002E4B1B682D4A43F0807313602B4BDB68F7
S315080026102A4A43F08073D360FFF754F9386108E01B
S31508002620FFF750F902463B69D31A022B01D9032357
S3150800263058E0224B1B6803F00073002BF0D050E0E3
S3150800264001234FE01D4B1B6803F00073002B48D194
S315080026501A4B1B68194A43F080731360174BDB68E3
S31508002660164A43F08073D360FFF72CF9386108E007
S31508002670FFF728F902463B69D31A022B01D903232F
S3150800268030E00E4B1B6803F00073002BF0D028E0F7
S31508002690BB690C2B23D0094B1B68084A23F08073AF
S315080026A01360FFF70FF938610CE0FFF70BF90246E4
S315080026B03B69D31A022B05D9032313E00010024005
S315080026C08C809DF9094B1B6803F00073002BECD135
S315080026D0064BDA680549064B1340CB6001E0012337
S315080026E000E0002318462037BD4680BD0010024092
S315080026F0FCFFEEFE80B584B000AF786039607B6879
S31508002700002B01D10123E7E0754B1B6803F0070393
S315080027103A689A4210D9724B1B6823F0070270492F
S315080027203B6813430B606E4B1B6803F007033A685C
S315080027309A4201D00123CFE07B681B6803F00203AD
S31508002740002B10D07B689A68664B9B6803F0F003F1
S315080027509A4208D9634B9B6823F0F0027B689B6812
S31508002760604913438B607B681B6803F00103002BE9
S315080027704CD07B685B68032B07D15A4B1B6803F068
S315080027800073002B21D10123A6E07B685B68022B2E
S3150800279007D1544B1B6803F40033002B15D10123D2
S315080027A09AE07B685B68002B07D14E4B1B6803F0E9
S315080027B00203002B09D101238EE04A4B1B6803F460
S315080027C08063002B01D1012386E0464B9B6823F0EA
S315080027D003027B685B68434913438B60FFF772F813
S315080027E0F8600AE0FFF76EF80246FB68D31A41F272
S315080027F08832934201D903236EE03A4B9B6803F073
S315080028000C027B685B689B009A42EBD17B681B686D
S3150800281003F00203002B10D07B689A68314B9B6843
S3150800282003F0F0039A4208D22E4B9B6823F0F0027D
S315080028307B689B682B4913438B60294B1B6803F005
S3150800284007033A689A4210D2254B1B6823F0070201
S3150800285023493B6813430B60214B1B6803F00703AE
S315080028603A689A4201D0012336E07B681B6803F078
S315080028700403002B08D01B4B9B6823F4E0627B689B
S31508002880DB68184913438B607B681B6803F00803F1
S31508002890002B09D0134B9B6823F460527B681B6995
S315080028A0DB00104913438B6000F024F802460D4BF9
S315080028B09B681B0903F00F030B49CB5C03F01F034E
S315080028C022FA03F3094A1360094B1B681846FEF7F8
S315080028D0A9FF0346FB72FB7A18461037BD4680BD32
S315080028E00020024000100240B889000804000020B9
S315080028F00800002080B489B000AF0023FB610023E4
S31508002900BB613E4B9B6803F00C033B613B4BDB68AA
S3150800291003F00303FB603B69002B05D03B690C2BD6
S3150800292021D1FB68012B1ED1344B1B6803F0080329
S31508002930002B07D1314BD3F894301B0A03F00F0351
S31508002940FB6105E02D4B1B681B0903F00F03FB61B8
S315080029502B4AFB6952F82330FB613B69002B0DD1EA
S31508002960FB69BB610AE03B69042B02D1254BBB61BD
S3150800297004E03B69082B01D1234BBB613B690C2B57
S3150800298034D11E4BDB6803F00303BB60BB68022B24
S3150800299003D0BB68032B03D005E01A4B7B6105E027
S315080029A0194B7B6102E0FB697B6100BF134BDB6857
S315080029B01B0903F0070301337B60104BDB681B0A16
S315080029C003F07F037A6903FB02F27B68B2FBF3F339
S315080029D07B610A4BDB685B0E03F0030301335B0084
S315080029E03B607A693B68B2FBF3F3BB61BB69184687
S315080029F02437BD465DF8047B704700BF00100240CF
S31508002A00D08900080024F40000127A0080B400AFD0
S31508002A10034B1B681846BD465DF8047B704700BF2C
S31508002A200400002080B500AFFFF7F0FF0246064B12
S31508002A309B681B0A03F007030449CB5C03F01F03DA
S31508002A4022FA03F3184680BD00100240C889000820
S31508002A5080B500AFFFF7DAFF0246064B9B68DB0A34
S31508002A6003F007030449CB5C03F01F0322FA03F3C0
S31508002A70184680BD00100240C889000880B586B097
S31508002A8000AF786000233B612A4B9B6D03F08053AF
S31508002A90002B03D0FFF7EEF9786114E0254B9B6D08
S31508002AA0244A43F080539365224B9B6D03F0805371
S31508002AB0FB60FB68FFF7DEF978611E4B9B6D1D4ACC
S31508002AC023F0805393657B69B3F5007F0BD17B6850
S31508002AD0802B19D97B68A02B02D902233B6113E00E
S31508002AE001233B6110E07B68802B02D903233B61FD
S31508002AF00AE07B68802B02D102233B6104E07B68F5
S31508002B00702B01D101233B610B4B1B6823F0070295
S31508002B1009493B6913430B60074B1B6803F007031E
S31508002B203A699A4201D0012300E000231846183773
S31508002B30BD4680BD001002400020024080B586B028
S31508002B4000AF78600023FB740023BB747B681B68A6
S31508002B5003F40063002B41D07B685B6EB3F5400F2E
S31508002B602AD0B3F5400F24D8B3F5000F08D0B3F533
S31508002B70000F1ED8002B0AD0B3F5800F10D018E02E
S31508002B80864BDB68854A43F48033D36015E07B685F
S31508002B9004330021184600F0BBFA0346FB740CE028
S31508002BA07B6820330021184600F0A6FB0346FB7419
S31508002BB003E00123FB7400E000BFFB7C002B0BD174
S31508002BC0764BD3F8883023F440027B685B6E7349F2
S31508002BD01343C1F8883001E0FB7CBB747B681B6833
S31508002BE003F48053002B41D07B689B6EB3F1407F82
S31508002BF02AD0B3F1407F24D8B3F1007F08D0B3F1CF
S31508002C00007F1ED8002B0AD0B3F1807F10D018E0C1
S31508002C10624BDB68614A43F48033D36015E07B6816
S31508002C2004330021184600F073FA0346FB740CE0DF
S31508002C307B6820330021184600F05EFB0346FB74D0
S31508002C4003E00123FB7400E000BFFB7C002B0BD1E3
S31508002C50524BD3F8883023F040727B689B6E4F49FD
S31508002C601343C1F8883001E0FB7CBB747B681B68A2
S31508002C7003F40033002B00F0A08000237B74474B3D
S31508002C809B6D03F08053002B01D1012300E0002344
S31508002C90002B0DD0414B9B6D404A43F08053936502
S31508002CA03E4B9B6D03F08053BB60BB6801237B746E
S31508002CB03B4B1B683A4A43F480731360FEF702FEE7
S31508002CC0F86009E0FEF7FEFD0246FB68D31A022B00
S31508002CD002D90323FB7405E0314B1B6803F48073A8
S31508002CE0002BEFD0FB7C002B5CD12C4BD3F890301B
S31508002CF003F440737B617B69002B1FD07B68D3F894
S31508002D0084307A699A4219D0244BD3F8903023F448
S31508002D1040737B61214BD3F89030204A43F48033CB
S31508002D20C2F890301D4BD3F890301C4A23F48033F8
S31508002D30C2F89030194A7B69C2F890307B6903F073
S31508002D400103002B16D0FEF7BDFDF8600BE0FEF779
S31508002D50B9FD0246FB68D31A41F28832934202D97A
S31508002D600323FB7406E00D4BD3F8903003F00203FF
S31508002D70002BECD0FB7C002B0CD1084BD3F8903001
S31508002D8023F440727B68D3F8843004491343C1F8AE
S31508002D90903009E0FB7CBB7406E000BF00100240DF
S31508002DA000700040FB7CBB747B7C012B05D19E4BDD
S31508002DB09B6D9D4A23F0805393657B681B6803F0DF
S31508002DC00103002B0AD0984BD3F8883023F003026E
S31508002DD07B689B6B94491343C1F888307B681B68F2
S31508002DE003F00203002B0AD08F4BD3F8883023F068
S31508002DF00C027B68DB6B8C491343C1F888307B680F
S31508002E001B6803F00403002B0AD0874BD3F88830DD
S31508002E1023F030027B681B6C83491343C1F8883062
S31508002E207B681B6803F00803002B0AD07E4BD3F897
S31508002E30883023F0C0027B685B6C7B491343C1F87A
S31508002E4088307B681B6803F01003002B0AD0764B8A
S31508002E50D3F8883023F440727B689B6C724913431D
S31508002E60C1F888307B681B6803F02003002B0AD062
S31508002E706D4BD3F8883023F440627B68DB6C6A4973
S31508002E801343C1F888307B681B6803F40073002B72
S31508002E900AD0654BD3F8883023F440227B68DB6D73
S31508002EA061491343C1F888307B681B6803F4806363
S31508002EB0002B0AD05C4BD3F8883023F440127B6889
S31508002EC01B6E59491343C1F888307B681B6803F0A9
S31508002ED04003002B0AD0544BD3F8883023F44052D1
S31508002EE07B681B6D50491343C1F888307B681B68A3
S31508002EF003F08003002B0AD04B4BD3F8883023F419
S31508002F0040427B685B6D48491343C1F888307B684B
S31508002F101B6803F48073002B0AD0434BD3F8883020
S31508002F2023F440327B689B6D3F491343C1F88830D0
S31508002F307B681B6803F40053002B28D03A4BD3F860
S31508002F40883023F040627B68DB6E37491343C1F84B
S31508002F5088307B68DB6EB3F1006F06D1324BDB68D5
S31508002F60314A43F48013D36011E07B68DB6EB3F11A
S31508002F70806F0CD17B6804330121184600F0C8F82D
S31508002F800346FB74FB7C002B01D0FB7CBB747B687F
S31508002F901B6803F40023002B28D0234BD3F8883072
S31508002FA023F040627B681B6F1F491343C1F88830C2
S31508002FB07B681B6FB3F1006F06D11B4BDB681A4A9F
S31508002FC043F48013D36011E07B681B6FB3F1806F05
S31508002FD00CD17B6804330121184600F099F80346A2
S31508002FE0FB74FB7C002B01D0FB7CBB747B681B68E5
S31508002FF003F48023002B2BD00B4BD3F8883023F017
S3150800300040627B685B6F08491343C1F888307B6868
S315080030105B6FB3F1006F09D1034BDB68024A43F4D7
S315080030208013D36014E000BF001002407B685B6F1A
S31508003030B3F1806F0CD17B6804330121184600F088
S3150800304067F80346FB74FB7C002B01D0FB7CBB7442
S315080030507B681B6803F48043002B2FD02B4BD3F8D7
S31508003060883023F040527B689B6F28491343C1F888
S3150800307088307B689B6FB3F1805F0DD17B68043322
S315080030800221184600F044F80346FB74FB7C002B2B
S3150800309014D0FB7CBB7411E07B689B6FB3F1005FB7
S315080030A00CD17B6820330221184600F025F9034627
S315080030B0FB74FB7C002B01D0FB7CBB747B681B6814
S315080030C003F40043002B0AD0104BD3F8883023F0C2
S315080030D080427B68DB6F0D491343C1F888307B68F3
S315080030E01B6803F48033002B0BD0084BD3F88830C9
S315080030F023F000427B68D3F8803004491343C1F8B3
S315080031008830BB7C18461837BD4680BD0010024083
S3150800311080B584B000AF786039600023FB73754BC7
S31508003120DB6803F00303002B18D0724BDB6803F04F
S3150800313003027B681B689A420DD17B681B68002BCB
S3150800314009D06C4BDB681B0903F007035A1C7B6824
S315080031505B689A4247D00123FB7344E07B681B688F
S31508003160032B18D0032B25D8012B02D0022B09D00C
S3150800317020E0604B1B6803F00203002B1DD10123DE
S31508003180FB731AE05B4B1B6803F48063002B16D1B4
S315080031900123FB7313E0574B1B6803F40033002B22
S315080031A00FD1544B1B6803F48023002B09D101234C
S315080031B0FB7306E00123FB7304E000BF02E000BFD7
S315080031C000E000BFFB7B002B0DD14A4BDB6823F0E8
S315080031D073027B6819687B685B68013B1B010B43BC
S315080031E044491343CB60FB7B002B7DD1414B1B68C5
S315080031F0404A23F080631360FEF764FBB86009E079
S31508003200FEF760FB0246BB68D31A022B02D90323DA
S31508003210FB7305E0374B1B6803F00063002BEFD107
S31508003220FB7B002B60D13B68002B11D1314B1B690E
S3150800323023F41F3323F440737A68926811027A687C
S31508003240D268120952040A432A4913430B6127E03C
S315080032503B68012B12D1274B1B6923F4C00323F4C7
S31508003260FE437A68926811027A6812695208013A2E
S3150800327052050A431F4913430B6111E01D4B1B6995
S3150800328023F0C06323F4FE437A68926811027A68D1
S3150800329052695208013A52060A43164913430B610A
S315080032A0144B1B68134A43F080631360FEF70AFB4E
S315080032B0B86009E0FEF706FB0246BB68D31A022B84
S315080032C002D90323FB7305E00A4B1B6803F000636E
S315080032D0002BEFD0FB7B002B06D1064B1A697B68C7
S315080032E09B69044913430B61FB7B18461037BD469F
S315080032F080BD00BF0010024080B584B000AF786082
S3150800330039600023FB736A4BDB6803F00303002B69
S3150800331018D0674BDB6803F003027B681B689A4288
S315080033200DD17B681B68002B09D0614BDB681B0934
S3150800333003F007035A1C7B685B689A4247D001234F
S31508003340FB7344E07B681B68032B18D0032B25D836
S31508003350012B02D0022B09D020E0554B1B6803F045
S315080033600203002B1DD10123FB731AE0504B1B6887
S3150800337003F48063002B16D10123FB7313E04C4B37
S315080033801B6803F40033002B0FD1494B1B6803F469
S315080033908023002B09D10123FB7306E00123FB736D
S315080033A004E000BF02E000BF00E000BFFB7B002B8B
S315080033B00DD13F4BDB6823F073027B6819687B6885
S315080033C05B68013B1B010B4339491343CB60FB7B0D
S315080033D0002B67D1364B1B68354A23F080531360A0
S315080033E0FEF770FAB86009E0FEF76CFA0246BB68A9
S315080033F0D31A022B02D90323FB7305E02C4B1B6857
S3150800340003F00053002BEFD1FB7B002B4AD13B681E
S31508003410002B11D1264B5B6923F41F3323F4407329
S315080034207A68926811027A68D268120952040A43C5
S315080034301F4913434B6111E01D4B5B6923F0C063C1
S3150800344023F4FE437A68926811027A681269520870
S31508003450013A52060A43164913434B61144B1B683B
S31508003460134A43F080531360FEF72CFAB86009E05C
S31508003470FEF728FA0246BB68D31A022B02D90323A1
S31508003480FB7305E00A4B1B6803F00053002BEFD0D3
S31508003490FB7B002B06D1064B5A697B685B6904499E
S315080034A013434B61FB7B18461037BD4680BD00BFF2
S315080034B00010024080B584B000AF78607B68002BAE
S315080034C001D1012395E07B685B6A002B08D17B68F4
S315080034D05B68B3F5827F09D07B680022DA6105E074
S315080034E07B6800221A617B6800225A617B68002289
S315080034F09A627B6893F85D30DBB2002B06D17B6855
S31508003500002283F85C207868FDF77CFF7B6802223E
S3150800351083F85D207B681B681A687B681B6822F045
S3150800352040021A607B68DB68B3F5E06F02D90023B6
S31508003530FB6002E04FF48053FB607B68DB68B3F501
S31508003540706F07D07B68DB68B3F5E06F02D07B68E5
S3150800355000229A627B685B6803F482727B689B68C8
S3150800356003F404431A437B681B6903F002031A43F6
S315080035707B685B6903F001031A437B689B6903F464
S3150800358000731A437B68DB6903F038031A437B68C8
S315080035901B6A03F0800342EA03017B689B6A03F413
S315080035A000527B681B680A431A607B689B691B0C80
S315080035B003F004027B685B6A03F010031A437B6816
S315080035C05B6B03F008031A437B68DB6803F47063DC
S315080035D042EA0301FB6803F480527B681B680A43CE
S315080035E05A607B6800221A667B68012283F85D2090
S315080035F0002318461037BD4680BD80B588B000AF99
S31508003600F860B9603B601346FB80FEF75BF9F8612A
S31508003610FB887B83FB6893F85D30DBB2012B01D016
S3150800362002235CE1BB68002B02D0FB88002B01D18A
S31508003630012354E1FB6893F85C30012B01D1022386
S315080036404DE1FB68012283F85C20FB68032283F8BE
S315080036505D20FB6800221A66FB68BA689A63FB68F5
S31508003660FA889A87FB68FA88DA87FB6800221A6460
S31508003670FB680022A3F84420FB680022A3F8462032
S31508003680FB6800221A65FB680022DA64FB689B68FF
S31508003690B3F5004F0FD1FB681B681A68FB681B68F7
S315080036A022F040021A60FB681B681A68FB681B68F0
S315080036B042F480421A60FB681B681B6803F04003EB
S315080036C0402B07D0FB681B681A68FB681B6842F02A
S315080036D040021A60FB68DB68B3F5E06F52D9FB68F5
S315080036E05B68002B02D07B8B012B45D1FB689B6B5B
S315080036F01A88FB681B68DA60FB689B6B9A1CFB6878
S315080037009A63FB68DB8F9BB2013B9AB2FB68DA8748
S3150800371032E0FB681B689B6803F00203022B12D198
S31508003720FB689B6B1A88FB681B68DA60FB689B6BF7
S315080037309A1CFB689A63FB68DB8F9BB2013B9AB2C3
S31508003740FB68DA8718E0FEF7BDF80246FB69D31A6C
S315080037503A689A4203D83B68B3F1FF3F02D13B6807
S31508003760002B09D1FB68012283F85D20FB68002243
S3150800377083F85C200323B2E0FB68DB8F9BB2002B47
S31508003780C7D183E0FB685B68002B02D07B8B012BDB
S3150800379077D1FB68DB8F9BB2012B12D9FB689B6B39
S315080037A01A88FB681B68DA60FB689B6B9A1CFB68C7
S315080037B09A63FB68DB8F9BB2023B9AB2FB68DA8797
S315080037C05FE0FB689A6BFB681B680C3312781A700B
S315080037D0FB689B6B5A1CFB689A63FB68DB8F9BB282
S315080037E0013B9AB2FB68DA874BE0FB681B689B686B
S315080037F003F00203022B2BD1FB68DB8F9BB2012B54
S3150800380012D9FB689B6B1A88FB681B68DA60FB6831
S315080038109B6B9A1CFB689A63FB68DB8F9BB2023B27
S315080038209AB2FB68DA872CE0FB689A6BFB681B6820
S315080038300C3312781A70FB689B6B5A1CFB689A63E8
S31508003840FB68DB8F9BB2013B9AB2FB68DA8718E00C
S31508003850FEF738F80246FB69D31A3A689A4203D843
S315080038603B68B3F1FF3F02D13B68002B09D1FB68E7
S31508003870012283F85D20FB68002283F85C2003237D
S315080038802DE0FB68DB8F9BB2002BAED1FA69396855
S31508003890F86800F065FB0346002B02D0FB6820227F
S315080038A01A66FB689B68002B0AD100237B61FB68BC
S315080038B01B68DB687B61FB681B689B687B617B69AF
S315080038C0FB68012283F85D20FB68002283F85C20F0
S315080038D0FB681B6E002B01D0012300E0002318466D
S315080038E02037BD4680BD80B58AB000AFF860B960A4
S315080038F07A607B8001237B62FDF7E4FF3862FB6810
S3150800390093F85D30FB77FB685B68BB617B88FB825D
S315080039107B88BB82FB7F012B0CD0BB69B3F5827F0A
S3150800392006D1FB689B68002B02D1FB7F042B01D0D4
S315080039300223F3E1BB68002B05D07B68002B02D07D
S315080039407B88002B01D10123E8E1FB6893F85C3002
S31508003950012B01D10223E1E1FB68012283F85C20F7
S31508003960FB6893F85D30DBB2042B03D0FB680522B5
S3150800397083F85D20FB6800221A66FB687A681A6479
S31508003980FB687A88A3F84620FB687A88A3F844205F
S31508003990FB68BA689A63FB687A88DA87FB687A886C
S315080039A09A87FB680022DA64FB6800221A65FB68BE
S315080039B0DB68B3F5E06F02D8BB8A012B08D9FB6830
S315080039C01B685A68FB681B6822F480525A6007E035
S315080039D0FB681B685A68FB681B6842F480525A6089
S315080039E0FB681B681B6803F04003402B07D0FB6885
S315080039F01B681A68FB681B6842F040021A60FB687D
S31508003A00DB68B3F5E06F40F28380FB685B68002BE8
S31508003A1002D0FB8A012B6FD1FB689B6B1A88FB6867
S31508003A201B68DA60FB689B6B9A1CFB689A63FB68E9
S31508003A30DB8F9BB2013B9AB2FB68DA875CE0FB68D6
S31508003A401B689B6803F00203022B1BD1FB68DB8F04
S31508003A509BB2002B16D07B6A012B13D1FB689B6B9C
S31508003A601A88FB681B68DA60FB689B6B9A1CFB6804
S31508003A709A63FB68DB8F9BB2013B9AB2FB68DA87D5
S31508003A8000237B62FB681B689B6803F00103012B1C
S31508003A901CD1FB68B3F846309BB2002B16D0FB68E6
S31508003AA01B68DA68FB681B6C92B21A80FB681B6C91
S31508003AB09A1CFB681A64FB68B3F846309BB2013B54
S31508003AC09AB2FB68A3F8462001237B62FDF7FAFE4B
S31508003AD002463B6AD31A3A6B9A420DD83B6BB3F14E
S31508003AE0FF3F09D0FB68012283F85D20FB680022AE
S31508003AF083F85C20032311E1FB68DB8F9BB2002B64
S31508003B009DD1FB68B3F846309BB2002B97D1E5E010
S31508003B10FB685B68002B03D0FB8A012B40F0D18041
S31508003B20FB68DB8F9BB2012B12D9FB689B6B1A884B
S31508003B30FB681B68DA60FB689B6B9A1CFB689A63D8
S31508003B40FB68DB8F9BB2023B9AB2FB68DA87B8E068
S31508003B50FB689A6BFB681B680C3312781A70FB6853
S31508003B609B6B5A1CFB689A63FB68DB8F9BB2013B15
S31508003B709AB2FB68DA87A4E0FB681B689B6803F0C7
S31508003B800203022B34D1FB68DB8F9BB2002B2FD0AC
S31508003B907B6A012B2CD1FB68DB8F9BB2012B12D9D8
S31508003BA0FB689B6B1A88FB681B68DA60FB689B6B73
S31508003BB09A1CFB689A63FB68DB8F9BB2023B9AB23E
S31508003BC0FB68DA8712E0FB689A6BFB681B680C33A4
S31508003BD012781A70FB689B6B5A1CFB689A63FB6821
S31508003BE0DB8F9BB2013B9AB2FB68DA8700237B62C4
S31508003BF0FB681B689B6803F00103012B48D1FB682F
S31508003C00B3F846309BB2002B42D0FB68B3F8463077
S31508003C109BB2012B23D9FB681B68DA68FB681B6C0F
S31508003C2092B21A80FB681B6C9A1CFB681A64FB68C4
S31508003C30B3F846309BB2023B9AB2FB68A3F846201B
S31508003C40FB68B3F846309BB2012B1FD8FB681B688C
S31508003C505A68FB681B6842F480525A6016E0FB6893
S31508003C601B6803F10C02FB681B6C1278D2B21A703F
S31508003C70FB681B6C5A1CFB681A64FB68B3F8463071
S31508003C809BB2013B9AB2FB68A3F8462001237B62EC
S31508003C90FDF718FE02463B6AD31A3A6B9A4203D8D6
S31508003CA03B6BB3F1FF3F02D13B6B002B09D1FB689D
S31508003CB0012283F85D20FB68002283F85C20032339
S31508003CC02CE0FB68DB8F9BB2002B7FF455AFFB68BB
S31508003CD0B3F846309BB2002B7FF44EAF3A6A396B85
S31508003CE0F86800F03DF90346002B08D0FB6820224F
S31508003CF01A66FB68002283F85C2001230EE0FB6845
S31508003D00012283F85D20FB68002283F85C20FB68AB
S31508003D101B6E002B01D0012300E00023184628372C
S31508003D20BD4680BD80B588B000AFF860B9603B601D
S31508003D301346FB71FDF7C6FD0246BB6A9B1A3A6835
S31508003D401344FB61FDF7BEFDB861394B1B685B0187
S31508003D501B0DFA6902FB03F37B6154E03B68B3F180
S31508003D60FF3F50D0FDF7AEFD0246BB69D31AFA698C
S31508003D709A4202D9FB69002B3DD1FB681B685A6839
S31508003D80FB681B6822F0E0025A60FB685B68B3F5C3
S31508003D90827F11D1FB689B68B3F5004F04D0FB689E
S31508003DA09B68B3F5806F07D1FB681B681A68FB68C8
S31508003DB01B6822F040021A60FB689B6AB3F5005F35
S31508003DC00FD1FB681B681A68FB681B6822F400524F
S31508003DD01A60FB681B681A68FB681B6842F4005285
S31508003DE01A60FB68012283F85D20FB68002283F8CD
S31508003DF05C20032317E07B69002B01D10023FB61BC
S31508003E007B69013B7B61FB681B689A68BB6813404A
S31508003E10BA689A420CBF01230023DBB21A46FB7923
S31508003E209A429BD1002318462037BD4680BD00BF65
S31508003E300400002080B58AB000AFF860B9607A60E7
S31508003E403B600023FB75FDF73DFD02463B6B9B1A65
S31508003E503A6813447B62FDF735FD3862FB681B68D8
S31508003E600C33FB613D4B1A6813469B001344DA007A
S31508003E70D31A1B0D7A6A02FB03F3BB6160E0BB68C9
S31508003E80B3F5C06F07D17B68002B04D1FB691B789B
S31508003E90DBB2FB75FB7D3B68B3F1FF3F50D0FDF706
S31508003EA011FD02463B6AD31A7A6A9A4202D97B6A9C
S31508003EB0002B3DD1FB681B685A68FB681B6822F01B
S31508003EC0E0025A60FB685B68B3F5827F11D1FB6834
S31508003ED09B68B3F5004F04D0FB689B68B3F5806F09
S31508003EE007D1FB681B681A68FB681B6822F040024A
S31508003EF01A60FB689B6AB3F5005F0FD1FB681B6805
S31508003F001A68FB681B6822F400521A60FB681B6873
S31508003F101A68FB681B6842F400521A60FB680122A3
S31508003F2083F85D20FB68002283F85C20032310E0F9
S31508003F30BB69002B01D100237B62BB69013BBB61D6
S31508003F40FB681B689A68BB6813407A689A4296D1E0
S31508003F50002318462837BD4680BD00BF0400002050
S31508003F6080B586B002AFF860B9607A607B68009366
S31508003F70BB6800224FF4C051F868FFF75BFF0346A1
S31508003F80002B07D0FB681B6E43F02002FB681A66FD
S31508003F90032327E07B680093BB6800228021F8682A
S31508003FA0FFF7C0FE0346002B07D0FB681B6E43F0E5
S31508003FB02002FB681A66032314E07B680093BB683B
S31508003FC000224FF4C061F868FFF734FF0346002B60
S31508003FD007D0FB681B6E43F02002FB681A660323B2
S31508003FE000E0002318461037BD4680BD80B582B074
S31508003FF000AF78607B68002B01D1012349E07B681C
S3150800400093F83D30DBB2002B06D17B68002283F89B
S315080040103C207868FDF73AFA7B68022283F83D204F
S315080040207B681A687B6804331946104600F0D2F894
S315080040307B68012283F848207B68012283F83E20AA
S315080040407B68012283F83F207B68012283F84020A1
S315080040507B68012283F841207B68012283F842208D
S315080040607B68012283F843207B68012283F8442079
S315080040707B68012283F845207B68012283F8462065
S315080040807B68012283F847207B68012283F83D205C
S31508004090002318460837BD4680BD80B586B000AFF8
S315080040A0F860B9607A600023FB75FB6893F83C30CA
S315080040B0012B01D1022388E0FB68012283F83C200A
S315080040C07B68002B1BD1FB681868BB681968BB683E
S315080040D05A68BB68DB6800F023F9FB681B689A69B5
S315080040E0FB681B6822F00C029A61FB681B689969D9
S315080040F0BB689A68FB681B680A439A6160E07B683C
S31508004100042B1CD1FB681868BB681968BB685A6819
S31508004110BB68DB6800F072F9FB681B689A69FB6884
S315080041201B6822F440629A61FB681B689969BB6840
S315080041309B681A02FB681B680A439A6140E07B6821
S31508004140082B1BD1FB681868BB681968BB685A68D6
S31508004150BB68DB6800F08FF9FB681B68DA69FB68E7
S315080041601B6822F00C02DA61FB681B68D969BB6818
S315080041709A68FB681B680A43DA6121E07B680C2BA6
S315080041801CD1FB681868BB681968BB685A68BB68A5
S31508004190DB6800F0ACF9FB681B68DA69FB681B682A
S315080041A022F44062DA61FB681B68D969BB689B68C0
S315080041B01A02FB681B680A43DA6101E00123FB75F2
S315080041C0FB68002283F83C20FB7D18461837BD465D
S315080041D080BD000080B485B000AF786039607B6828
S315080041E01B68FB607B68464A934213D07B68B3F131
S315080041F0804F0FD07B68434A93420BD07B68424A74
S31508004200934207D07B68414A934203D07B68404A71
S31508004210934208D1FB6823F07003FB603B685B6838
S31508004220FA681343FB607B68354A93421FD07B6864
S31508004230B3F1804F1BD07B68324A934217D07B6814
S31508004240314A934213D07B68304A93420FD07B6839
S315080042502F4A93420BD07B682E4A934207D07B683D
S315080042602D4A934203D07B682C4A934208D1FB68B7
S3150800427023F44073FB603B68DB68FA681343FB6012
S31508004280FB6823F080023B685B691343FB607B682D
S31508004290FA681A603B689A687B68DA623B681A684B
S315080042A07B689A627B68164A93420FD07B68184AE5
S315080042B093420BD07B68174A934207D07B68164A0D
S315080042C0934203D07B68154A934203D13B681A6927
S315080042D07B681A637B6801225A617B681B6903F055
S315080042E00103012B05D17B681B6923F001027B685A
S315080042F01A6100BF1437BD465DF8047B704700BFDE
S31508004300002C01400004004000080040000C00405A
S31508004310003401400040014000440140004801408B
S3150800432080B487B000AFF860B9607A603B60FB681C
S315080043301B6A3B61FB681B6A23F00102FB681A6271
S31508004340FB689B697B61FB68264A934217D0FB682A
S31508004350B3F1804F13D0FB68234A93420FD0FB6812
S31508004360224A93420BD0FB68214A934207D0FB6846
S31508004370204A934203D0FB681F4A934201D1012386
S3150800438000E00023002B08D07B6923F003037B6140
S315080043907A697B6813437B6103E07B6943F0010319
S315080043A07B617B6923F0F0037B613B681B01DBB211
S315080043B07A6913437B613B6923F00A033B61BB6857
S315080043C003F00A033A6913433B61FB687A699A6109
S315080043D0FB683A691A6200BF1C37BD465DF8047B64
S315080043E0704700BF002C0140000400400008004050
S315080043F0000C0040003401400040014080B487B002
S3150800440000AFF860B9607A603B60FB681B6A7B6145
S31508004410FB681B6A23F01002FB681A62FB689B693B
S315080044203B613B6923F440733B617B681B023A6935
S3150800443013433B613B6923F470433B613B681B03B1
S315080044409BB23A6913433B617B6923F0A0037B6106
S31508004450BB681B0103F0A0037A6913437B61FB6801
S315080044603A699A61FB687A691A6200BF1C37BD46C9
S315080044705DF8047B704780B487B000AFF860B96018
S315080044807A603B60FB681B6A7B61FB681B6A23F4E6
S315080044908072FB681A62FB68DB693B613B6923F043
S315080044A003033B613A697B6813433B613B6923F02D
S315080044B0F0033B613B681B01DBB23A6913433B617E
S315080044C07B6923F420637B61BB681B0203F42063CA
S315080044D07A6913437B61FB683A69DA61FB687A6932
S315080044E01A6200BF1C37BD465DF8047B704780B46E
S315080044F087B000AFF860B9607A603B60FB681B6AFA
S315080045007B61FB681B6A23F48052FB681A62FB68AE
S31508004510DB693B613B6923F440733B617B681B02A3
S315080045203A6913433B613B6923F470433B613B683B
S315080045301B039BB23A6913433B617B6923F420430F
S315080045407B61BB681B0303F420437A6913437B61D1
S31508004550FB683A69DA61FB687A691A6200BF1C3738
S31508004560BD465DF8047B704780B485B000AF7860BF
S3150800457039607B6893F83C30012B01D1022368E04F
S315080045807B68012283F83C207B68022283F83D2061
S315080045907B681B685B68FB607B681B689B68BB6005
S315080045A07B681B682E4A934204D07B681B682D4A99
S315080045B0934208D1FB6823F47003FB603B685B6891
S315080045C0FA681343FB60FB6823F07003FB603B68E3
S315080045D01B68FA681343FB607B681B68FA685A60B5
S315080045E07B681B681E4A93421DD07B681B68B3F123
S315080045F0804F18D07B681B681B4A934213D07B6890
S315080046001B681A4A93420ED07B681B68184A934265
S3150800461009D07B681B68134A934204D07B681B68E1
S31508004620144A93420CD1BB6823F08003BB603B68F5
S315080046309B68BA681343BB607B681B68BA689A6054
S315080046407B68012283F83D207B68002283F83C20A2
S31508004650002318461437BD465DF8047B704700BF33
S31508004660002C0140003401400004004000080040CE
S31508004670000C00400040014080B582B000AF786071
S315080046807B68002B01D1012340E07B68DB6F002BA0
S3150800469006D17B68002283F878207868FCF73AFF11
S315080046A07B682422DA677B681B681A687B681B6844
S315080046B022F001021A607B685B6A002B02D07868D8
S315080046C000F0E0FA786800F025F80346012B01D1DE
S315080046D001231BE07B681B685A687B681B6822F409
S315080046E090425A607B681B689A687B681B6822F050
S315080046F02A029A607B681B681A687B681B6842F006
S3150800470001021A60786800F05FFB0346184608370E
S31508004710BD4680BD2DE9B04F8AB000AFF8600023D2
S3150800472087F82230FB689A68FB681B691A43FB689E
S315080047305B691A43FB68DB6913437B62FB681B688A
S315080047401A68A44B1340FA681268796A0B43136017
S31508004750FB681B685B6823F44051FB68DA68FB68F2
S315080047601B680A435A60FB689B697B62FB681B6887
S31508004770994A934204D0FB681B6A7A6A13437B62A0
S31508004780FB681B689B6823F43061FB681B687A6AC0
S315080047900A439A60FB681B68904A934226D1904B5D
S315080047A0D3F8883003F00303032B1BD801A252F871
S315080047B023F000BFC5470008D5470008CD470008C5
S315080047C0DD470008012387F8233016E1022387F81E
S315080047D0233012E1042387F823300EE1082387F8F3
S315080047E023300AE1102387F8233006E1FB681B68AB
S315080047F07C4A934238D17A4BD3F8883003F00C03BD
S315080048000C2B2DD801A252F823F000BF414800080E
S3150800481061480008614800086148000851480008D6
S3150800482061480008614800086148000849480008CE
S3150800483061480008614800086148000859480008AE
S31508004840002387F82330D8E0022387F82330D4E002
S31508004850042387F82330D0E0082387F82330CCE0F8
S31508004860102387F82330C8E0FB681B685E4A93422A
S3150800487025D15B4BD3F8883003F03003302B16D0A4
S31508004880302B18D8202B0AD0202B14D8002B02D076
S31508004890102B08D00FE0002387F82330ADE0022361
S315080048A087F82330A9E0042387F82330A5E00823F6
S315080048B087F82330A1E0102387F823309DE0FB68B2
S315080048C01B684A4A934225D1454BD3F8883003F0F2
S315080048D0C003C02B16D0C02B18D8802B0AD0802B2B
S315080048E014D8002B02D0402B08D00FE0002387F8FD
S315080048F0233082E0022387F823307EE0042387F8FA
S3150800490023307AE0082387F8233076E0102387F8E7
S31508004910233072E0FB681B68354A93422AD1304B34
S31508004920D3F8883003F44073B3F5407F1AD0B3F553
S31508004930407F1BD8B3F5007F0CD0B3F5007F15D8A0
S31508004940002B03D0B3F5807F08D00FE0002387F84B
S31508004950233052E0022387F823304EE0042387F8F9
S3150800496023304AE0082387F8233046E0102387F8E7
S31508004970233042E0FB681B68174A93423AD1184B2A
S31508004980D3F8883003F44063B3F5406F1AD0B3F513
S31508004990406F1BD8B3F5006F0CD0B3F5006F15D870
S315080049A0002B03D0B3F5806F08D00FE0002387F8FB
S315080049B0233022E0022387F823301EE0042387F8F9
S315080049C023301AE0082387F8233016E0102387F8E7
S315080049D0233012E0F369FFEF008000400038014001
S315080049E0001002400044004000480040004C0040CF
S315080049F000500040102387F82330FB681B689F4A45
S31508004A0093427AD197F82330082B24D801A252F87A
S31508004A1023F000BF394A0008574A0008414A0008EF
S31508004A20574A0008474A0008574A0008574A0008E4
S31508004A30574A00084F4A0008FDF7F4FFF86110E0EE
S31508004A408F4BFB610DE0FDF755FFF86109E04FF468
S31508004A500043FB6105E00023FB61012387F8223050
S31508004A6000BFFB69002B00F0FB80FB685A68134601
S31508004A705B001344FA699A4205D3FB685B681B031B
S31508004A80FA699A4203D9012387F82230E8E0FB69DC
S31508004A9000221C4615464FF000024FF000032B0279
S31508004AA043EA14632202F9684968490800208846DF
S31508004AB0814612EB080A43EB090BFB685B68002288
S31508004AC03B607A60D7E9002350465946FBF7D0FB8E
S31508004AD002460B461346BB61BB69B3F5407F08D354
S31508004AE0BB69B3F5801F04D2FB681B68BA69DA6034
S31508004AF0B6E0012387F82230B2E0FB68DB69B3F53C
S31508004B00004F5ED197F82330082B28D801A252F817
S31508004B1023F000BF394B0008414B0008494B0008F9
S31508004B205F4B00084F4B00085F4B00085F4B0008BF
S31508004B305F4B0008574B0008FDF774FFF86114E057
S31508004B40FDF786FFF86110E04D4BFB610DE0FDF7C0
S31508004B50D1FEF86109E04FF40043FB6105E000234C
S31508004B60FB61012387F8223000BFFB69002B77D051
S31508004B70FB695A00FB685B685B081A44FB685B685C
S31508004B80B2FBF3F3BB61BB690F2B16D9BB69B3F54F
S31508004B90803F12D2BB699BB223F00F03FB82BB692D
S31508004BA05B089BB203F007039AB2FB8A1343FB82A6
S31508004BB0FB681B68FA8ADA6052E0012387F822301C
S31508004BC04EE097F82330082B27D801A252F823F095
S31508004BD0F54B0008FD4B0008054C00081B4C000867
S31508004BE00B4C00081B4C00081B4C00081B4C00080B
S31508004BF0134C0008FDF716FFF86114E0FDF728FFCF
S31508004C00F86110E01E4BFB610DE0FDF773FEF861DD
S31508004C1009E04FF40043FB6105E00023FB61012333
S31508004C2087F8223000BFFB69002B19D0FB685B6848
S31508004C305A08FB691A44FB685B68B2FBF3F3BB616D
S31508004C40BB690F2B09D9BB69B3F5803F05D2BB6990
S31508004C509AB2FB681B68DA6002E0012387F8223003
S31508004C60FB6800229A66FB680022DA6697F822300B
S31508004C7018462837BD46BDE8B08F00BF0080004003
S31508004C800024F40080B483B000AF78607B685B6A68
S31508004C9003F00803002B0AD07B681B685B6823F4C3
S31508004CA000417B685A6B7B681B680A435A607B68BD
S31508004CB05B6A03F00103002B0AD07B681B685B68FC
S31508004CC023F400317B689A6A7B681B680A435A603A
S31508004CD07B685B6A03F00203002B0AD07B681B68BB
S31508004CE05B6823F480317B68DA6A7B681B680A4351
S31508004CF05A607B685B6A03F00403002B0AD07B6862
S31508004D001B685B6823F480217B681A6B7B681B68C9
S31508004D100A435A607B685B6A03F01003002B0AD0CB
S31508004D207B681B689B6823F480517B689A6B7B6859
S31508004D301B680A439A607B685B6A03F02003002BB2
S31508004D400AD07B681B689B6823F400517B68DA6B82
S31508004D507B681B680A439A607B685B6A03F04003BA
S31508004D60002B1AD07B681B685B6823F480117B686C
S31508004D701A6C7B681B680A435A607B681B6CB3F520
S31508004D80801F0AD17B681B685B6823F4C0017B68B7
S31508004D905A6C7B681B680A435A607B685B6A03F037
S31508004DA08003002B0AD07B681B685B6823F400210C
S31508004DB07B689A6C7B681B680A435A6000BF0C378D
S31508004DC0BD465DF8047B704780B598B002AF786041
S31508004DD07B680022C3F88420FCF774FD78657B683D
S31508004DE01B681B6803F00803082B2ED16FF07E435F
S31508004DF000937B6D00224FF40011786800F08CF860
S31508004E000346002B21D07B681B68BB63BB6B53E84A
S31508004E10003F7B637B6B23F080033B657B681B68E5
S31508004E201A463B6D7B643A64396C7A6C41E8002318
S31508004E30FB63FB6B002BE6D17B682022DA677B6875
S31508004E40002283F87820032362E07B681B681B68CE
S31508004E5003F00403042B49D16FF07E4300937B6D66
S31508004E6000224FF48001786800F056F80346002BBC
S31508004E703CD07B681B687B627B6A53E8003F3B62D9
S31508004E803B6A23F49073FB647B681B681A46FB6CC9
S31508004E903B63FA62F96A3A6B41E80023BB62BB6A74
S31508004EA0002BE6D17B681B6808333B613B6953E8F6
S31508004EB0003FFB60FB6823F00103BB647B681B684B
S31508004EC00833BA6CFA61BB61B969FA6941E800232B
S31508004ED07B617B69002BE5D17B682022C3F88020A3
S31508004EE07B68002283F87820032311E07B68202260
S31508004EF0DA677B682022C3F880207B6800221A665E
S31508004F007B6800225A667B68002283F87820002393
S31508004F1018465837BD4680BD80B584B000AFF860E6
S31508004F20B9603B601346FB714FE0BB69B3F1FF3FC5
S31508004F304BD0FCF7C7FC02463B68D31ABA699A42BB
S31508004F4002D3BB69002B01D103234EE0FB681B6823
S31508004F501B6803F00403002B37D0BB68802B34D0C2
S31508004F60BB68402B31D0FB681B68DB6903F008037C
S31508004F70082B10D1FB681B6808221A62F86800F033
S31508004F8038F8FB680822C3F88420FB68002283F8F7
S31508004F907820012329E0FB681B68DB6903F40063BA
S31508004FA0B3F5006F11D1FB681B684FF400621A62F3
S31508004FB0F86800F01EF8FB682022C3F88420FB6816
S31508004FC0002283F8782003230FE0FB681B68DA6960
S31508004FD0BB681340BA689A420CBF01230023DBB2B0
S31508004FE01A46FB799A42A0D0002318461037BD46C8
S31508004FF080BD80B495B000AF78607B681B687B6322
S315080050007B6B53E8003F3B633B6B23F49073FB6475
S315080050107B681B681A46FB6C3B64FA63F96B3A6C4F
S3150800502041E80023BB63BB6B002BE6D17B681B689A
S3150800503008333B623B6A53E8003FFB61FB6923F098
S315080050400103BB647B681B680833BA6CFA62BB62EF
S31508005050B96AFA6A41E800237B627B6A002BE5D1CC
S315080050607B681B6E012B18D17B681B68FB60FB688D
S3150800507053E8003FBB60BB6823F010037B647B6882
S315080050801B681A467B6CBB617A617969BA6941E823
S3150800509000233B613B69002BE6D17B682022C3F8DD
S315080050A080207B6800221A667B6800229A6600BF09
S315080050B05437BD465DF8047B7047000080B500AFE5
S315080050C00449054802F082FB03461A46034B1A7048
S315080050D000BF80BD1C1200201000002018120020FE
S315080050E080B400AF00231846BD465DF8047B7047C0
S315080050F080B582B000AF0346FB71FB791846FBF713
S3150800510001FC034618460837BD4680BD80B582B007
S3150800511000AF0346FB71FB791846FBF7D9FC03463B
S3150800512018460837BD4680BD80B584B000AFB96063
S315080051307A603B600346FB73F87B3B687A68B9681C
S31508005140FBF7DCFC034618461037BD4680BD80B524
S3150800515084B000AFB9607A603B600346FB73F87BA6
S315080051603B687A68B968FBF733FD0346184610377B
S31508005170BD4680BD80B582B000AF03463A60FB717C
S315080051800B46BB71B979FB793A681846FBF7A4FD5B
S31508005190034618460837BD4680BD000080B584B072
S315080051A000AF0346FB71FB79084A9B0013445B6812
S315080051B05B68FA7905490A44127A10469847034605
S315080051C0FB73FB7B18461037BD4680BD8024002044
S315080051D080B584B000AF0346FB710023FB73FB79EF
S315080051E00D4AD35C002B11D1FB790B4A0121D1540E
S315080051F0FB79094A9B0013445B681B68FA790649E0
S315080052000A44127A104698470346FB73FB7B1846F6
S315080052101037BD4680BD00BF8024002090B587B0FA
S3150800522000AFB9607A603B600346FB73FB7B0A4AB2
S315080052309B0013445B689C68FB7B074A1344187AF7
S315080052403B687A68B968A0470346FB75FB7D184634
S315080052501C37BD4690BD00BF8024002090B587B09E
S3150800526000AFB9607A603B600346FB73FB7B0A4A72
S315080052709B0013445B68DC68FB7B074A1344187A77
S315080052803B687A68B968A0470346FB75FB7D1846F4
S315080052901C37BD4690BD00BF8024002080B584B071
S315080052A000AF03463A60FB710B46BB71FB79094AAE
S315080052B09B0013445B681B69FA7906490A44107A0D
S315080052C0B9793A6898470346FB73FB7B184610374B
S315080052D0BD4680BD8024002080B485B000AF7860CC
S315080052E07B6801331B78FB81B7F90E301B021AB2B3
S315080052F07B681B781BB213431BB2FB81FB891846DC
S315080053001437BD465DF8047B704780B485B000AF9E
S3150800531078607B6803331B78FB60FB681B027A683E
S31508005320023212781343FB60FB681B027A6801326B
S3150800533012781343FB60FB681B027A6812781343E2
S31508005340FB60FB6818461437BD465DF8047B70475A
S3150800535080B483B000AF78600B467B807B685A1CAC
S315080053607A607A88D2B21A707B881B0A7B807B683F
S315080053705A1C7A607A88D2B21A7000BF0C37BD46BA
S315080053805DF8047B704780B483B000AF78603960FD
S315080053907B685A1C7A603A68D2B21A703B681B0A54
S315080053A03B607B685A1C7A603A68D2B21A703B68CE
S315080053B01B0A3B607B685A1C7A603A68D2B21A703C
S315080053C03B681B0A3B607B685A1C7A603A68D2B213
S315080053D01A7000BF0C37BD465DF8047B704780B471
S315080053E087B000AFF860B9607A60FB687B61BB681C
S315080053F03B617B68002B0DD03A69531C3B617B6986
S31508005400591C796112781A707B68013B7B607B684E
S31508005410002BF1D100BF1C37BD465DF8047B7047F1
S3150800542080B487B000AFF860B9607A60FB687B61CA
S315080054307B695A1C7A61BA68D2B21A707B68013BDA
S315080054407B607B68002BF3D100BF00BF1C37BD46CD
S315080054505DF8047B704780B489B000AFF860B96026
S315080054607A60FB68FB61BB68BB6100237B61FB69F3
S315080054705A1CFA611B781946BB695A1CBA611B7813
S31508005480CB1A7B617B68013B7B607B68002B02D073
S315080054907B69002BEBD07B6918462437BD465DF83F
S315080054A0047B704780B483B000AF7860396002E04F
S315080054B07B6801337B607B681B78002B05D07B6893
S315080054C01B781A463B689342F2D17B681B781846CC
S315080054D00C37BD465DF8047B7047000080B485B084
S315080054E000AF786039600023BB60BB68FB6029E0C9
S315080054F0274AFB681B0113441B68002B1DD0244A4E
S31508005500FB681B0113441A687B681B689A4216D10C
